:020000040800F2
:100000000820002085070008A1070008A5070008B0
:10001000A9070008AD070008B107000800000000AC
:10002000000000000000000000000000B50700080C
:10003000B907000800000000BD070008C10700085C
:10004000C5070008C9070008CD070008D107000848
:10005000D5070008D9070008DD070008E1070008F8
:10006000E5070008E9070008ED070008F1070008A8
:10007000F5070008F9070008FD0700080108000857
:1000800005080008090800080D0800081108000804
:1000900015080008190800081D08000821080008B4
:1000A00025080008290800082D0800083108000864
:1000B00035080008390800083D0800084108000814
:1000C00045080008490800084D08000851080008C4
:1000D00055080008590800085D0800086108000874
:1000E00065080008690800086D0800087108000824
:1000F00075080008790800087D08000881080008D4
:1001000085080008890800088D0800089108000883
:1001100095080008990800089D080008A108000833
:10012000A5080008A9080008AD080008B1080008E3
:10013000B5080008B9080008BD080008C108000893
:10014000C5080008C9080008CD080008D108000843
:10015000D5080008D9080008DD080008E1080008F3
:10016000E5080008E9080008ED080008F1080008A3
:10017000F5080008F9080008FD0800080109000852
:10018000050900080909000880B54848006850F4CE
:100190007000464908604648006850F00100444934
:1001A000086000204349086041480068424908400F
:1001B0003F4908604148424908603D48006830F4C2
:1001C00080203B49086000203E49086000F005F8A7
:1001D0005FF000603C49086001BD82B000200190E2
:1001E000002000903248006850F4803030490860A8
:1001F0002F48006810F4003000900198401C0190D6
:100200000098002803D10198B0F5A04FF0D12848FC
:100210000068800302D50120009001E000200090DA
:10022000009801283ED12948006850F080502749A5
:1002300008602748006850F44040254908601D4880
:1002400000681C4908601B48006850F400401949C8
:1002500008601848006850F4A050164908601D480E
:10026000174908601248006850F080701049086013
:100270000F4800688001FBD540F205701649086000
:100280000C480068800880000A4908600948006836
:1002900050F00200074908600648006810F00C00A2
:1002A0000828F9D102B070470000000088ED00E096
:1002B0000038024008380240FFFFF6FE10300024EC
:1002C000043802400C38024008ED00E0403802409B
:1002D0000070004019544007003C024080B500F017
:1002E000C1F8012810D13C2000F0E8F8012000F00E
:1002F00057F900F0B7F80128FBD0012000F023F9EE
:100300000020444908703DE000F0ACF8022810D10C
:100310003C2000F0D3F8022000F042F900F0A2F8EF
:100320000228FBD0022000F00EF9002039490870A5
:1003300028E000F097F8042810D13C2000F0BEF827
:10034000042000F02DF900F08DF80428FBD00420E3
:1003500000F0F9F800202F49087013E000F082F84F
:1003600008280FD13C2000F0A9F8082000F018F967
:1003700000F078F80828FBD0082000F0E4F800200E
:100380002449087001BD80B500F0B6F800F044F8CB
:10039000204800780028FBD1012000F001F941F24B
:1003A000883000F08BF8012000F0CDF8FFF796FFC1
:1003B00041F2883000F082F8022000F0F1F841F2BA
:1003C000883000F07BF8022000F0BDF8FFF786FFD0
:1003D00041F2883000F072F8042000F0E1F841F2B8
:1003E000883000F06BF8042000F0ADF8FFF776FFDE
:1003F00041F2883000F062F8082000F0D1F841F2B4
:10040000883000F05BF8082000F09DF8FFF766FFE9
:10041000BEE700000000002000B583B001210220EB
:1004200000F0F0F84FF47040009000208DF80600C6
:1004300000208DF8040001208DF8070000208DF8C1
:10044000050000A91C4800F0EFF800A91A4800F0C8
:10045000EBF800A9184800F0E7F800A9164800F0EA
:10046000E3F807BD10B500244FF48051124800F0A6
:100470002EF9002801D154F001044FF400510E4828
:1004800000F025F9002801D154F002044FF4804116
:10049000094800F01CF9002801D154F004044FF47D
:1004A0000041054800F013F9002801D154F0080478
:1004B0002000C0B210BD0000000402400021010075
:1004C000481E002906D04FF47A710A00511E002AF6
:1004D000FBD1F4E7704750F8041B61B150F8042BCE
:1004E000D30744BFA9F101039A18002342F8043B43
:1004F000091FFAD1EFE7704700B583B00121122040
:1005000000F080F80F20009001208DF804000020FA
:100510008DF8060000208DF8050000208DF80700FA
:1005200000A9364800F080F80F21344800F0DAF8CE
:100530000720009000A9324800F076F807213048E3
:1005400000F0D0F807BD10B50400E00703D5012185
:100550002A4800F0C7F8A00703D50221274800F079
:10056000C1F8600703D50421244800F0BBF8200738
:1005700003D50821214800F0B5F8E00603D5012194
:100580001F4800F0AFF8A00603D502211C4800F078
:10059000A9F8600603D50421194800F0A3F810BD9E
:1005A00010B50400E00703D50121144800F09CF8C1
:1005B000A00703D50221114800F096F8600703D583
:1005C00004210E4800F090F8200703D508210B48BD
:1005D00000F08AF8E00603D50121094800F084F80C
:1005E000A00603D50221064800F07EF8600603D578
:1005F0000421034800F078F810BD0000001002400C
:1006000000040240C9B2002905D006490968084320
:100610000449086005E00349096831EA000001491E
:10062000086070473038024030B4002200230024B4
:1006300000252A0047E0012393400C681C409C429F
:1006400040D1036803241500EDB26D00AC40A34314
:10065000036003680C791500EDB26D00AC402343D4
:1006600003600B79012B02D00B79022B1AD183681E
:1006700003241500EDB26D00AC40A3438360836892
:100680004C791500EDB26D00AC40234383604368A4
:1006900001249440A343436043688C799440A4B2FE
:1006A00023434360C36803241500EDB26D00AC40E2
:1006B000A343C360C368CC791500EDB26D00AC40B4
:1006C0002343C360521C102AB5D330BC70470022AC
:1006D000006989B2084201D0012200E00022100026
:1006E000C0B27047018370474183704710B5074916
:1006F00079441831064C7C44163404E00A68081D1D
:10070000511888470146A142F8D110BD08000000E9
:1007100014000000C3FDFFFF0400000000000020E3
:10072000000000004EF68851CEF20001086840F447
:10073000700008604FF00070E1EE100A7047000092
:1007400000F00BF8002801D0FFF7D0FF0020C046D2
:10075000C046FFF718FE00F002F80120704700F0D5
:1007600001B800000746384600F002F8FBE7000039
:1007700080B5C046C046024A11001820ABBEFBE758
:10078000260002000148804701480047890100080F
:1007900095070008C046C046FFF7C4FFFFF7D0FF2B
:1007A000FFF7FEBFFFF7FEBFFFF7FEBFFFF7FEBF7D
:1007B000FFF7FEBFFFF7FEBFFFF7FEBFFFF7FEBF6D
:1007C000FFF7FEBFFFF7FEBFFFF7FEBFFFF7FEBF5D
:1007D000FFF7FEBFFFF7FEBFFFF7FEBFFFF7FEBF4D
:1007E000FFF7FEBFFFF7FEBFFFF7FEBFFFF7FEBF3D
:1007F000FFF7FEBFFFF7FEBFFFF7FEBFFFF7FEBF2D
:10080000FFF7FEBFFFF7FEBFFFF7FEBFFFF7FEBF1C
:10081000FFF7FEBFFFF7FEBFFFF7FEBFFFF7FEBF0C
:10082000FFF7FEBFFFF7FEBFFFF7FEBFFFF7FEBFFC
:10083000FFF7FEBFFFF7FEBFFFF7FEBFFFF7FEBFEC
:10084000FFF7FEBFFFF7FEBFFFF7FEBFFFF7FEBFDC
:10085000FFF7FEBFFFF7FEBFFFF7FEBFFFF7FEBFCC
:10086000FFF7FEBFFFF7FEBFFFF7FEBFFFF7FEBFBC
:10087000FFF7FEBFFFF7FEBFFFF7FEBFFFF7FEBFAC
:10088000FFF7FEBFFFF7FEBFFFF7FEBFFFF7FEBF9C
:10089000FFF7FEBFFFF7FEBFFFF7FEBFFFF7FEBF8C
:1008A000FFF7FEBFFFF7FEBFFFF7FEBFFFF7FEBF7C
:1008B000FFF7FEBFFFF7FEBFFFF7FEBFFFF7FEBF6C
:1008C000FFF7FEBFFFF7FEBFFFF7FEBFFFF7FEBF5C
:1008D000FFF7FEBFFFF7FEBFFFF7FEBFFFF7FEBF4C
:1008E000FFF7FEBFFFF7FEBFFFF7FEBFFFF7FEBF3C
:1008F000FFF7FEBFFFF7FEBFFFF7FEBFFFF7FEBF2C
:0C090000FFF7FEBFFFF7FEBFFFF7FEBFD2
:040000050800079553
:00000001FF
