:020000040800F2
:1000000008200020410A00085D0A0008610A000873
:10001000650A0008690A00086D0A0008000000006F
:10002000000000000000000000000000710A00084D
:10003000750A000800000000790A00087D0A00081F
:10004000810A0008850A0008890A00088D0A00084C
:10005000910A0008950A0008990A00089D0A0008FC
:10006000A10A0008A50A0008A90A0008AD0A0008AC
:10007000B10A0008B50A0008B90A0008BD0A00085C
:10008000C10A0008C50A0008C90A0008CD0A00080C
:10009000D10A0008D50A0008D90A0008DD0A0008BC
:1000A000E10A0008E50A0008E90A0008ED0A00086C
:1000B000F10A0008F50A0008F90A0008FD0A00081C
:1000C000010B0008050B0008090B00080D0B0008C8
:1000D000110B0008150B0008190B00081D0B000878
:1000E000F7010008210B0008250B0008290B000868
:1000F0002D0B0008310B0008350B0008390B0008E8
:100100003D0B0008410B0008450B0008490B000897
:100110004D0B0008510B0008550B0008590B000847
:100120005D0B0008610B0008650B0008690B0008F7
:100130006D0B0008710B0008750B0008790B0008A7
:100140007D0B0008810B0008850B0008890B000857
:100150008D0B0008910B0008950B0008990B000807
:100160009D0B0008A10B0008A50B0008A90B0008B7
:10017000AD0B0008B10B0008B50B0008B90B000867
:10018000BD0B0008C10B0008E0B500F0B7F8012175
:100190004FF4804000F014F90C21012000F024F904
:1001A0000D21012000F020F90E21012000F01CF9A2
:1001B0000F21012000F018F94FF470400190002049
:1001C0008DF808000C208DF8090001208DF80A0038
:1001D00001A800F033F928208DF8000000208DF8E8
:1001E000010001208DF8020001208DF8030000A815
:1001F00000F082F907BD80B500F0A6F8012814D1FF
:100200004FF4FA7000F0B2F900F09EF8012847D1DF
:1002100000F09AF80128FBD00120364908703648D2
:100220000068401C344908603AE000F08DF802286C
:100230000FD14FF4FA7000F099F900F085F8022818
:100240002ED100F081F80228FBD002202949087045
:1002500026E000F079F804280FD14FF4FA7000F08E
:1002600085F900F071F804281AD100F06DF804281F
:10027000FBD003201F49087012E000F065F8082841
:100280000ED14FF4FA7000F071F900F05DF8082813
:1002900006D100F059F80828FBD004201549087051
:1002A0004FF4805000F00EF9002803D04FF4805036
:1002B00000F013F94FF4005000F004F9002803D0C7
:1002C0004FF4005000F009F94FF4804000F0FAF8C4
:1002D000002803D04FF4804000F0FFF84FF40040B6
:1002E00000F0F0F8002803D04FF4004000F0F5F8DB
:1002F00001BD0000050000200000002000B583B013
:100300000121022000F04CF84FF4704000900020D2
:100310008DF8060000208DF8040001208DF80700FC
:1003200000208DF8050000A91C4800F043F900A941
:100330001A4800F03FF900A9184800F03BF900A95D
:10034000164800F037F907BD10B500244FF480516E
:10035000124800F082F9002801D154F001044FF452
:1003600000510E4800F079F9002801D154F0020440
:100370004FF48041094800F070F9002801D154F091
:1003800004044FF40041054800F067F9002801D14A
:1003900054F008042000C0B210BD00000004024068
:1003A000C9B2002905D00E49096808430C49086004
:1003B00005E00B49096831EA000009490860704707
:1003C000C9B2002905D007490968084305490860F2
:1003D00005E00449096831EA0000024908607047F5
:1003E000303802404438024010B400220F2311F08C
:1003F0000304E4B2A400A3401A000F4BC9B28C104E
:1004000053F8243033EA02020B4BC9B28C1043F884
:100410002420094AC9B28B1052F82320C0B211F02F
:100420000303DBB29B0098401043034AC9B2891012
:1004300042F8210010BC7047083801400021294AC9
:1004400011008279002A35D0264A126803689A433F
:10045000244B1A60244A126803689A43224B1A609C
:10046000027989180A6803681A430A601F490968F3
:10047000026891431D4A11601D4909680268914351
:100480001B4A1160417910290CD11849096802688A
:100490001143164A11601649096800680843144957
:1004A00008600EE00F49427989180A680068104315
:1004B000086006E0027989180A68006832EA0000DC
:1004C0000860704700210B4A1268024201D00121E6
:1004D00000E000210800C0B270470649086070477C
:1004E00000000000003C0140043C0140083C014089
:1004F0000C3C0140143C014010B4002100220F23A9
:10050000C478002C1ED01549096811F4E061D1F5BA
:10051000E061090AD1F10402DBB20B41417891405C
:1005200082781A40114309010D4A03789954012138
:10053000027812F01F0291400A4A0078401142F8F6
:10054000201009E00121027812F01F029140064AB2
:100550000078401142F8201010BC70470CED00E00C
:1005600000E400E000E100E080E100E000210100A3
:10057000481E002906D04FF47A710A00511E002A45
:10058000FBD1F4E7704710B450F8041B81B1026846
:100590001218001D50F8043BDC0744BFA9F1010408
:1005A000E31852F8044B43F8044B091FF9D1EBE769
:1005B00010BC704730B400220023002400252A001C
:1005C00047E0012393400C681C409C4240D10368E3
:1005D00003241500EDB26D00AC40A3430360036833
:1005E0000C791500EDB26D00AC40234303600B792C
:1005F000012B02D00B79022B1AD18368032415003A
:10060000EDB26D00AC40A343836083684C79150064
:10061000EDB26D00AC4023438360436801249440F5
:10062000A343436043688C799440A4B2234343605E
:10063000C36803241500EDB26D00AC40A343C36052
:10064000C368CC791500EDB26D00AC402343C360A4
:10065000521C102AB5D330BC70470022006989B201
:10066000084201D0012200E000221000C0B2704711
:10067000018370474183704780B54848006850F453
:100680007000464908604648006850F0010044493F
:10069000086000204349086041480068424908401A
:1006A0003F4908604148424908603D48006830F4CD
:1006B00080203B49086000203E49086000F005F8B2
:1006C0005FF000603C49086001BD82B000200190ED
:1006D000002000903248006850F4803030490860B3
:1006E0002F48006810F4003000900198401C0190E1
:1006F0000098002803D10198B0F5A04FF0D1284808
:100700000068800302D50120009001E000200090E5
:10071000009801283ED12948006850F080502749B0
:1007200008602748006850F44040254908601D488B
:1007300000681C4908601B48006850F400401949D3
:1007400008601848006850F4A050164908601D4819
:10075000174908601248006850F08070104908601E
:100760000F4800688001FBD540F20570164908600B
:100770000C480068800880000A4908600948006841
:1007800050F00200074908600648006810F00C00AD
:100790000828F9D102B070470000000088ED00E0A1
:1007A0000038024008380240FFFFF6FE10300024F7
:1007B000043802400C38024008ED00E040380240A6
:1007C0000070004008544007003C024000B583B070
:1007D00001211220FFF7E4FD0F20009001208DF889
:1007E000040000208DF8060000208DF80500002090
:1007F0008DF8070000A93648FFF7DCFE0F213448CA
:10080000FFF736FF0720009000A93248FFF7D2FE1D
:1008100007213048FFF72CFF07BD10B50400E007A3
:1008200003D501212A48FFF723FFA00703D50221A2
:100830002748FFF71DFF600703D504212448FFF771
:1008400017FF200703D508212148FFF711FFE00615
:1008500003D501211F48FFF70BFFA00603D5022196
:100860001C48FFF705FF600603D504211948FFF770
:10087000FFFE10BD10B50400E00703D501211448A8
:10088000FFF7F8FEA00703D502211148FFF7F2FE9B
:10089000600703D504210E48FFF7ECFE200703D5BF
:1008A00008210B48FFF7E6FEE00603D501210948C1
:1008B000FFF7E0FEA00603D502210648FFF7DAFEA7
:1008C000600603D504210348FFF7D4FE10BD0000E5
:1008D000001002400004024080B5FFF777FFFFF7E9
:1008E0000DFDFFF751FC08E00120FFF7C3FF0020DA
:1008F0002949086000202949087029480078012802
:1009000003D1264800780128EED025480078022837
:100910000AD122480078012806D10220FFF7AAFF59
:1009200000201E490870E8E71D48007803280AD116
:100930001A480078012806D10420FFF79BFF002009
:1009400016490870D9E71648007804280AD11348D8
:100950000078012806D10820FFF78CFF00200F49FE
:100960000870CAE70C4800680228C6D10120FFF7CA
:1009700054FF0220FFF751FF0420FFF74EFF08202D
:10098000FFF74BFF0020044908600120034908706D
:10099000002003490870B0E7000000200400002098
:1009A0000500002010B5074979441831064C7C44F5
:1009B000163404E00A68081D511888470146A14210
:1009C000F8D110BD0800000018000000BBFBFFFFBD
:1009D00008000000F00100000000002000000000FE
:1009E0004EF68851CEF20001086840F470000860AD
:1009F0004FF00070E1EE100A7047000000F00BF8B5
:100A0000002801D0FFF7CEFF0020C046C046FFF708
:100A100063FF00F002F80120704700F001B8000009
:100A20000746384600F002F8FBE7000080B5C046F4
:100A3000C046024A11001820ABBEFBE726000200A8
:100A4000014880470148004779060008510A00081C
:100A5000C046C046FFF7C4FFFFF7D0FFFFF7FEBF59
:100A6000FFF7FEBFFFF7FEBFFFF7FEBFFFF7FEBFBA
:100A7000FFF7FEBFFFF7FEBFFFF7FEBFFFF7FEBFAA
:100A8000FFF7FEBFFFF7FEBFFFF7FEBFFFF7FEBF9A
:100A9000FFF7FEBFFFF7FEBFFFF7FEBFFFF7FEBF8A
:100AA000FFF7FEBFFFF7FEBFFFF7FEBFFFF7FEBF7A
:100AB000FFF7FEBFFFF7FEBFFFF7FEBFFFF7FEBF6A
:100AC000FFF7FEBFFFF7FEBFFFF7FEBFFFF7FEBF5A
:100AD000FFF7FEBFFFF7FEBFFFF7FEBFFFF7FEBF4A
:100AE000FFF7FEBFFFF7FEBFFFF7FEBFFFF7FEBF3A
:100AF000FFF7FEBFFFF7FEBFFFF7FEBFFFF7FEBF2A
:100B0000FFF7FEBFFFF7FEBFFFF7FEBFFFF7FEBF19
:100B1000FFF7FEBFFFF7FEBFFFF7FEBFFFF7FEBF09
:100B2000FFF7FEBFFFF7FEBFFFF7FEBFFFF7FEBFF9
:100B3000FFF7FEBFFFF7FEBFFFF7FEBFFFF7FEBFE9
:100B4000FFF7FEBFFFF7FEBFFFF7FEBFFFF7FEBFD9
:100B5000FFF7FEBFFFF7FEBFFFF7FEBFFFF7FEBFC9
:100B6000FFF7FEBFFFF7FEBFFFF7FEBFFFF7FEBFB9
:100B7000FFF7FEBFFFF7FEBFFFF7FEBFFFF7FEBFA9
:100B8000FFF7FEBFFFF7FEBFFFF7FEBFFFF7FEBF99
:100B9000FFF7FEBFFFF7FEBFFFF7FEBFFFF7FEBF89
:100BA000FFF7FEBFFFF7FEBFFFF7FEBFFFF7FEBF79
:100BB000FFF7FEBFFFF7FEBFFFF7FEBFFFF7FEBF69
:0C0BC000FFF7FEBF000000000100000075
:0400000508000A5194
:00000001FF
