:020000040800F2
:1000000008200020DD090008F9090008FD090008A2
:10001000010A0008050A0008090A0008000000009B
:100020000000000000000000000000000D0A0008B1
:10003000110A000800000000150A0008190A00084B
:100040001D0A0008210A0008250A0008290A0008DC
:100050002D0A0008310A0008350A0008390A00088C
:100060003D0A0008410A0008450A0008490A00083C
:100070004D0A0008510A0008550A0008590A0008EC
:100080005D0A0008610A0008650A0008690A00089C
:100090006D0A0008710A0008750A0008790A00084C
:1000A0007D0A0008810A0008850A0008890A0008FC
:1000B0008D0A0008910A0008950A0008990A0008AC
:1000C0009D0A0008A10A0008A50A0008A90A00085C
:1000D000AD0A0008B10A0008B50A0008B90A00080C
:1000E000EF060008BD0A0008C10A0008C50A00089A
:1000F000C90A0008CD0A0008D10A0008D50A00087C
:10010000D90A0008DD0A0008E10A0008E50A00082B
:10011000E90A0008ED0A0008F10A0008F50A0008DB
:10012000F90A0008FD0A0008010B0008050B000889
:10013000090B00080D0B0008110B0008150B000837
:10014000190B00081D0B0008210B0008250B0008E7
:10015000290B00082D0B0008310B0008350B000897
:10016000390B00083D0B0008410B0008450B000847
:10017000490B00084D0B0008510B0008550B0008F7
:10018000590B00085D0B000880B54848006850F422
:100190007000464908604648006850F00100444934
:1001A000086000204349086041480068424908400F
:1001B0003F4908604148424908603D48006830F4C2
:1001C00080203B49086000203E49086000F005F8A7
:1001D0005FF000603C49086001BD82B000200190E2
:1001E000002000903248006850F4803030490860A8
:1001F0002F48006810F4003000900198401C0190D6
:100200000098002803D10198B0F5A04FF0D12848FC
:100210000068800302D50120009001E000200090DA
:10022000009801283ED12948006850F080502749A5
:1002300008602748006850F44040254908601D4880
:1002400000681C4908601B48006850F400401949C8
:1002500008601848006850F4A050164908601D480E
:10026000174908601248006850F080701049086013
:100270000F4800688001FBD540F205701649086000
:100280000C480068800880000A4908600948006836
:1002900050F00200074908600648006810F00C00A2
:1002A0000828F9D102B070470000000088ED00E096
:1002B0000038024008380240FFFFF6FE10300024EC
:1002C000043802400C38024008ED00E0403802409B
:1002D0000070004008544007003C024000B583B065
:1002E0000121122000F080F80F20009001208DF8ED
:1002F000040000208DF8060000208DF80500002085
:100300008DF8070000A9364800F092F80F21344814
:1003100000F0ECF80720009000A9324800F088F8BF
:100320000721304800F0E2F807BD10B50400E007EF
:1003300003D501212A4800F0D9F8A00703D50221EE
:10034000274800F0D3F8600703D50421244800F0C3
:10035000CDF8200703D50821214800F0C7F8E006B2
:1003600003D501211F4800F0C1F8A00603D50221E2
:100370001C4800F0BBF8600603D50421194800F0C2
:10038000B5F810BD10B50400E00703D501211448ED
:1003900000F0AEF8A00703D50221114800F0A8F83C
:1003A000600703D504210E4800F0A2F8200703D50A
:1003B00008210B4800F09CF8E00603D5012109480C
:1003C00000F096F8A00603D50221064800F090F848
:1003D000600603D50421034800F08AF810BD000030
:1003E0000010024000040240C9B2002905D00E49A5
:1003F000096808430C49086005E00B49096831EABF
:100400000000094908607047C9B2002905D00749B2
:10041000096808430549086005E00449096831EAAC
:1004200000000249086070473038024044380240FA
:1004300030B400220023002400252A0047E00123D5
:1004400093400C681C409C4240D103680324150073
:10045000EDB26D00AC40A343036003680C79150056
:10046000EDB26D00AC40234303600B79012B02D049
:100470000B79022B1AD1836803241500EDB26D00AD
:10048000AC40A343836083684C791500EDB26D00E6
:10049000AC4023438360436801249440A3434360FA
:1004A00043688C799440A4B223434360C368032417
:1004B0001500EDB26D00AC40A343C360C368CC79B6
:1004C0001500EDB26D00AC402343C360521C102AEE
:1004D000B5D330BC70470022006989B2084201D010
:1004E000012200E000221000C0B270470183704773
:1004F0004183704780B5FFF7F1FE00F077F800F018
:10050000C7F802E00120FFF73DFF364800680128E8
:10051000F8D034480068022806D10220FFF732FFE5
:100520000120FFF702FFF0E72E480068032806D1FC
:100530000420FFF727FF0220FFF7F7FEE5E7294831
:100540000068042806D10820FFF71CFF0420FFF7ED
:10055000ECFEDAE72348006805280CD10120FFF7FC
:1005600011FF0220FFF70EFF0420FFF70BFF08200A
:10057000FFF708FFC9E71B480068062821D11A4881
:10058000007800280CD10120FFF7FCFE0420FFF7C3
:10059000F9FE0220FFF7C9FE0820FFF7C6FEB4E708
:1005A000114800780128B0D10220FFF7EBFE0820A7
:1005B000FFF7E8FE0120FFF7B8FE0420FFF7B5FEC5
:1005C000A3E70020074908600120FFF7AEFE0220E4
:1005D000FFF7ABFE0420FFF7A8FE0820FFF7A5FEFB
:1005E00093E700BF000000200400002000B583B0A6
:1005F00001210220FFF7F8FE4FF470400090002028
:100600008DF8060000208DF8040001208DF8070009
:1006100000208DF8050000A91C48FFF709FF00A97C
:100620001A48FFF705FF00A91848FFF701FF00A9C6
:100630001648FFF7FDFE07BD10B500244FF48051AA
:100640001248FFF748FF002801D154F001044FF48D
:1006500000510E48FFF73FFF002801D154F002047B
:100660004FF480410948FFF736FF002801D154F0CC
:1006700004044FF400410548FFF72DFF002801D185
:1006800054F008042000C0B210BD00000004024075
:10069000E0B5FFF7ABFF01214FF48040FFF7B4FE58
:1006A0000E21012000F06EF80F21012000F06AF801
:1006B0004FF44040019000208DF808000C208DF888
:1006C000090001208DF80A0001A800F085F8282013
:1006D0008DF8000000208DF8010001208DF8020047
:1006E00001208DF8030000A800F0D4F807BD80B504
:1006F000FFF7A2FF042811D14FF4FA7000F004F9BB
:10070000FFF79AFF042824D1FFF796FF0428FBD0B7
:100710001A480068401C194908601AE0FFF78CFF6E
:10072000082816D14FF4FA7000F0EEF8FFF784FFB6
:1007300008280ED1FFF780FF0828FBD0104800786A
:10074000002803D101200E49087002E000200C4966
:1007500008704FF4804000F083F8002803D04FF475
:10076000804000F088F84FF4004000F079F800284D
:1007700003D04FF4004000F07EF801BD00000020DF
:100780000400002010B400220F2311F00304E4B28F
:10079000A400A3401A000F4BC9B28C1053F82430A8
:1007A00033EA02020B4BC9B28C1043F82420094AE9
:1007B000C9B28B1052F82320C0B211F00303DBB290
:1007C0009B0098401043034AC9B2891042F82100A7
:1007D00010BC7047083801400021294A1100827975
:1007E000002A35D0264A126803689A43244B1A60BF
:1007F000244A126803689A43224B1A6002798918C6
:100800000A6803681A430A601F490968026891432D
:100810001D4A11601D490968026891431B4A116015
:10082000417910290CD11849096802681143164A08
:1008300011601649096800680843144908600EE011
:100840000F49427989180A6800681043086006E079
:10085000027989180A68006832EA00000860704767
:1008600000210B4A1268024201D0012100E0002160
:100870000800C0B2704706490860704700000000D9
:10088000003C0140043C0140083C01400C3C01405C
:10089000143C014010B4002100220F23C478002C26
:1008A0001ED01549096811F4E061D1F5E061090A2B
:1008B000D1F10402DBB20B414178914082781A40B9
:1008C000114309010D4A037899540121027812F06D
:1008D0001F0291400A4A0078401142F8201009E0B6
:1008E0000121027812F01F029140064A007840115F
:1008F00042F8201010BC70470CED00E000E400E06E
:1009000000E100E080E100E000210100481E002934
:1009100006D04FF47A710A00511E002AFBD1F4E789
:10092000704750F8041B61B150F8042BD30744BF43
:10093000A9F101039A18002342F8043B091FFAD1D8
:10094000EFE7704710B5074979441831064C7C44ED
:10095000163404E00A68081D511888470146A14270
:10096000F8D110BD0800000014000000B7FFFFFF21
:100970000800000000000020000000004EF6885132
:10098000CEF20001086840F4700008604FF000707B
:10099000E1EE100A7047000000F00BF8002801D0CB
:1009A000FFF7D0FF0020C046C046FFF7A3FD00F0D0
:1009B00002F80120704700F001B8000007463846F1
:1009C00000F002F8FBE7000080B5C046C046024ACE
:1009D00011001820ABBEFBE726000200014880474B
:1009E0000148004789010008ED090008C046C046DB
:1009F000FFF7C4FFFFF7D0FFFFF7FEBFFFF7FEBF13
:100A0000FFF7FEBFFFF7FEBFFFF7FEBFFFF7FEBF1A
:100A1000FFF7FEBFFFF7FEBFFFF7FEBFFFF7FEBF0A
:100A2000FFF7FEBFFFF7FEBFFFF7FEBFFFF7FEBFFA
:100A3000FFF7FEBFFFF7FEBFFFF7FEBFFFF7FEBFEA
:100A4000FFF7FEBFFFF7FEBFFFF7FEBFFFF7FEBFDA
:100A5000FFF7FEBFFFF7FEBFFFF7FEBFFFF7FEBFCA
:100A6000FFF7FEBFFFF7FEBFFFF7FEBFFFF7FEBFBA
:100A7000FFF7FEBFFFF7FEBFFFF7FEBFFFF7FEBFAA
:100A8000FFF7FEBFFFF7FEBFFFF7FEBFFFF7FEBF9A
:100A9000FFF7FEBFFFF7FEBFFFF7FEBFFFF7FEBF8A
:100AA000FFF7FEBFFFF7FEBFFFF7FEBFFFF7FEBF7A
:100AB000FFF7FEBFFFF7FEBFFFF7FEBFFFF7FEBF6A
:100AC000FFF7FEBFFFF7FEBFFFF7FEBFFFF7FEBF5A
:100AD000FFF7FEBFFFF7FEBFFFF7FEBFFFF7FEBF4A
:100AE000FFF7FEBFFFF7FEBFFFF7FEBFFFF7FEBF3A
:100AF000FFF7FEBFFFF7FEBFFFF7FEBFFFF7FEBF2A
:100B0000FFF7FEBFFFF7FEBFFFF7FEBFFFF7FEBF19
:100B1000FFF7FEBFFFF7FEBFFFF7FEBFFFF7FEBF09
:100B2000FFF7FEBFFFF7FEBFFFF7FEBFFFF7FEBFF9
:100B3000FFF7FEBFFFF7FEBFFFF7FEBFFFF7FEBFE9
:100B4000FFF7FEBFFFF7FEBFFFF7FEBFFFF7FEBFD9
:100B5000FFF7FEBFFFF7FEBFFFF7FEBFFFF7FEBFC9
:04000005080009EDF9
:00000001FF
