:020000040800F2
:1000000008200020ED080008090900080D09000873
:10001000110900081509000819090008000000006E
:100020000000000000000000000000001D090008A2
:10003000210900080000000025090008290900081E
:100040002D090008310900083509000839090008A0
:100050003D09000841090008450900084909000850
:100060004D09000851090008550900085909000800
:100070005D090008610900086509000869090008B0
:100080006D09000871090008750900087909000860
:100090007D09000881090008850900088909000810
:1000A0008D090008910900089509000899090008C0
:1000B0009D090008A1090008A5090008A909000870
:1000C000AD090008B1090008B5090008B909000820
:1000D000BD090008C1090008C5090008C9090008D0
:1000E00053050008CD090008D1090008D50900080A
:1000F000D9090008DD090008E1090008E509000840
:10010000E9090008ED090008F1090008F5090008EF
:10011000F9090008FD090008010A0008050A00089D
:10012000090A00080D0A0008110A0008150A00084B
:10013000190A00081D0A0008210A0008250A0008FB
:10014000290A00082D0A0008310A0008350A0008AB
:10015000390A00083D0A0008410A0008450A00085B
:10016000490A00084D0A0008510A0008550A00080B
:10017000590A00085D0A0008610A0008650A0008BB
:10018000690A00086D0A000880B54848006850F404
:100190007000464908604648006850F00100444934
:1001A000086000204349086041480068424908400F
:1001B0003F4908604148424908603D48006830F4C2
:1001C00080203B49086000203E49086000F005F8A7
:1001D0005FF000603C49086001BD82B000200190E2
:1001E000002000903248006850F4803030490860A8
:1001F0002F48006810F4003000900198401C0190D6
:100200000098002803D10198B0F5A04FF0D12848FC
:100210000068800302D50120009001E000200090DA
:10022000009801283ED12948006850F080502749A5
:1002300008602748006850F44040254908601D4880
:1002400000681C4908601B48006850F400401949C8
:1002500008601848006850F4A050164908601D480E
:10026000174908601248006850F080701049086013
:100270000F4800688001FBD540F205701649086000
:100280000C480068800880000A4908600948006836
:1002900050F00200074908600648006810F00C00A2
:1002A0000828F9D102B070470000000088ED00E096
:1002B0000038024008380240FFFFF6FE10300024EC
:1002C000043802400C38024008ED00E0403802409B
:1002D0000070004008544007003C024000B583B065
:1002E0000121122000F080F80F20009001208DF8ED
:1002F000040000208DF8060000208DF80500002085
:100300008DF8070000A9364800F092F80F21344814
:1003100000F0ECF80720009000A9324800F088F8BF
:100320000721304800F0E2F807BD10B50400E007EF
:1003300003D501212A4800F0D9F8A00703D50221EE
:10034000274800F0D3F8600703D50421244800F0C3
:10035000CDF8200703D50821214800F0C7F8E006B2
:1003600003D501211F4800F0C1F8A00603D50221E2
:100370001C4800F0BBF8600603D50421194800F0C2
:10038000B5F810BD10B50400E00703D501211448ED
:1003900000F0AEF8A00703D50221114800F0A8F83C
:1003A000600703D504210E4800F0A2F8200703D50A
:1003B00008210B4800F09CF8E00603D5012109480C
:1003C00000F096F8A00603D50221064800F090F848
:1003D000600603D50421034800F08AF810BD000030
:1003E0000010024000040240C9B2002905D00E49A5
:1003F000096808430C49086005E00B49096831EABF
:100400000000094908607047C9B2002905D00749B2
:10041000096808430549086005E00449096831EAAC
:1004200000000249086070473038024044380240FA
:1004300030B400220023002400252A0047E00123D5
:1004400093400C681C409C4240D103680324150073
:10045000EDB26D00AC40A343036003680C79150056
:10046000EDB26D00AC40234303600B79012B02D049
:100470000B79022B1AD1836803241500EDB26D00AD
:10048000AC40A343836083684C791500EDB26D00E6
:10049000AC4023438360436801249440A3434360FA
:1004A00043688C799440A4B223434360C368032417
:1004B0001500EDB26D00AC40A343C360C368CC79B6
:1004C0001500EDB26D00AC402343C360521C102AEE
:1004D000B5D330BC70470022006989B2084201D010
:1004E000012200E000221000C0B270470183704773
:1004F00041837047E0B500F05FF801214FF4804080
:10050000FFF782FF0E21012000F0A8F80F21012043
:1005100000F0A4F84FF44040019000208DF808004E
:100520000C208DF8090001208DF80A0001A800F0C8
:10053000BFF828208DF8000000208DF80100012070
:100540008DF8020001208DF8030000A800F00EF9DC
:1005500007BD80B500F056F8042816D14FF4FA70A4
:1005600000F03EF900F04EF804280ED100F04AF8F1
:100570000428FBD00F480078002803D101200D4942
:10058000087002E000200B4908704FF4804000F032
:10059000D3F8002803D04FF4804000F0D8F84FF48F
:1005A000004000F0C9F8002803D04FF4004000F0EC
:1005B000CEF801BD0000002000B583B0012102206B
:1005C000FFF712FF4FF47040009000208DF80600F6
:1005D00000208DF8040001208DF8070000208DF820
:1005E000050000A91C48FFF723FF00A91A48FFF7E0
:1005F0001FFF00A91848FFF71BFF00A91648FFF7C7
:1006000017FF07BD10B500244FF480511248FFF7C3
:1006100062FF002801D154F001044FF400510E484C
:10062000FFF759FF002801D154F002044FF4804134
:100630000948FFF750FF002801D154F004044FF49B
:1006400000410548FFF747FF002801D154F0080496
:100650002000C0B210BD00000004024010B400220F
:100660000F2311F00304E4B2A400A3401A000F4BBF
:10067000C9B28C1053F8243033EA02020B4BC9B2D2
:100680008C1043F82420094AC9B28B1052F8232059
:10069000C0B211F00303DBB29B0098401043034A41
:1006A000C9B2891042F8210010BC704708380140D7
:1006B0000021294A11008279002A35D0264A126881
:1006C00003689A43244B1A60244A126803689A43C9
:1006D000224B1A60027989180A6803681A430A6073
:1006E0001F490968026891431D4A11601D49096844
:1006F000026891431B4A1160417910290CD11849B5
:10070000096802681143164A1160164909680068B1
:100710000843144908600EE00F49427989180A68B5
:1007200000681043086006E0027989180A680068CA
:1007300032EA00000860704700210B4A126802424A
:1007400001D0012100E000210800C0B27047064935
:100750000860704700000000003C0140043C01407C
:10076000083C01400C3C0140143C014010B4002105
:1007700000220F23C478002C1ED01549096811F4FB
:10078000E061D1F5E061090AD1F10402DBB20B416D
:100790004178914082781A40114309010D4A03784B
:1007A00099540121027812F01F0291400A4A007800
:1007B000401142F8201009E00121027812F01F02D6
:1007C0009140064A0078401142F8201010BC704752
:1007D0000CED00E000E400E000E100E080E100E07A
:1007E00000210100481E002906D04FF47A710A004A
:1007F000511E002AFBD1F4E7704750F8041B61B189
:1008000050F8042BD30744BFA9F101039A18002321
:1008100042F8043B091FFAD1EFE7704780B5FFF7B4
:1008200069FEFFF75BFDFFF7C7FE05E00120FFF75C
:10083000A9FD0220FFF779FD054800780028F5D0D2
:100840000220FFF79FFD0120FFF76FFDF4E700BFD7
:100850000000002010B5074979441831064C7C444B
:10086000163404E00A68081D511888470146A14261
:10087000F8D110BD08000000140000007FFFFFFF4A
:100880000400000000000020000000004EF6885127
:10089000CEF20001086840F4700008604FF000706C
:1008A000E1EE100A7047000000F00BF8002801D0BC
:1008B000FFF7D0FF0020C046C046FFF7AFFF00F0B3
:1008C00002F80120704700F001B8000007463846E2
:1008D00000F002F8FBE7000080B5C046C046024ABF
:1008E00011001820ABBEFBE726000200014880473C
:1008F0000148004789010008FD080008C046C046BD
:10090000FFF7C4FFFFF7D0FFFFF7FEBFFFF7FEBF03
:10091000FFF7FEBFFFF7FEBFFFF7FEBFFFF7FEBF0B
:10092000FFF7FEBFFFF7FEBFFFF7FEBFFFF7FEBFFB
:10093000FFF7FEBFFFF7FEBFFFF7FEBFFFF7FEBFEB
:10094000FFF7FEBFFFF7FEBFFFF7FEBFFFF7FEBFDB
:10095000FFF7FEBFFFF7FEBFFFF7FEBFFFF7FEBFCB
:10096000FFF7FEBFFFF7FEBFFFF7FEBFFFF7FEBFBB
:10097000FFF7FEBFFFF7FEBFFFF7FEBFFFF7FEBFAB
:10098000FFF7FEBFFFF7FEBFFFF7FEBFFFF7FEBF9B
:10099000FFF7FEBFFFF7FEBFFFF7FEBFFFF7FEBF8B
:1009A000FFF7FEBFFFF7FEBFFFF7FEBFFFF7FEBF7B
:1009B000FFF7FEBFFFF7FEBFFFF7FEBFFFF7FEBF6B
:1009C000FFF7FEBFFFF7FEBFFFF7FEBFFFF7FEBF5B
:1009D000FFF7FEBFFFF7FEBFFFF7FEBFFFF7FEBF4B
:1009E000FFF7FEBFFFF7FEBFFFF7FEBFFFF7FEBF3B
:1009F000FFF7FEBFFFF7FEBFFFF7FEBFFFF7FEBF2B
:100A0000FFF7FEBFFFF7FEBFFFF7FEBFFFF7FEBF1A
:100A1000FFF7FEBFFFF7FEBFFFF7FEBFFFF7FEBF0A
:100A2000FFF7FEBFFFF7FEBFFFF7FEBFFFF7FEBFFA
:100A3000FFF7FEBFFFF7FEBFFFF7FEBFFFF7FEBFEA
:100A4000FFF7FEBFFFF7FEBFFFF7FEBFFFF7FEBFDA
:100A5000FFF7FEBFFFF7FEBFFFF7FEBFFFF7FEBFCA
:100A6000FFF7FEBFFFF7FEBFFFF7FEBFFFF7FEBFBA
:04000005080008FDEA
:00000001FF
