:020000040800F2
:1000000008200020A10A0008BD0A0008C10A000853
:10001000C50A0008C90A0008CD0A0008000000004F
:10002000000000000000000000000000D10A0008ED
:10003000D50A000800000000D90A0008DD0A0008FF
:10004000E10A0008E50A0008E90A0008ED0A0008CC
:10005000F10A0008F50A0008F90A0008FD0A00087C
:10006000010B0008050B0008090B00080D0B000828
:10007000110B0008150B0008190B00081D0B0008D8
:10008000210B0008250B0008290B00082D0B000888
:10009000310B0008350B0008390B00083D0B000838
:1000A000410B0008450B0008490B00084D0B0008E8
:1000B000510B0008B90500080B060008550B000895
:1000C000590B00085D0B0008610B0008650B000868
:1000D000690B00086D0B0008710B0008750B000818
:1000E000790B00087D0B0008810B0008850B0008C8
:1000F000890B00088D0B0008910B0008950B000878
:10010000990B00089D0B0008A10B0008A50B000827
:10011000A90B0008AD0B0008B10B0008B50B0008D7
:10012000B90B0008BD0B0008C10B0008C50B000887
:10013000C90B0008CD0B0008D10B0008D50B000837
:10014000D90B0008DD0B0008E10B0008E50B0008E7
:10015000E90B0008ED0B0008F10B0008F50B000897
:10016000F90B0008FD0B0008010C0008050C000845
:10017000090C00080D0C0008110C0008150C0008F3
:10018000190C00081D0C000880B500F0EFF80428D9
:1001900010D14FF4FA7000F015F900F0E7F80428D8
:1001A00008D100F0E3F80428FBD057480068401C51
:1001B0005549086001BD80B5FF205449087000F022
:1001C0001FF900F0ADF844F29F1140F6C31000F0A3
:1001D0009DF944F29F1141F2873000F0C2F909E025
:1001E000042000F034F9082000F05EF900214848AE
:1001F00000F05BFAFFF7C8FF43480068002814D1FD
:100200000121434800F051FA012000F020F90220BA
:1002100000F01DF93F4800780028E1D1042000F0EB
:1002200043F9082000F013F9E0E737480068012897
:1002300033D10121384800F038FA012000F007F9E5
:10024000022000F004F9042000F001F9082000F079
:10025000FEF82E480078002803D1012000F024F990
:1002600016E02A480078012803D1022000F01CF98A
:100270000EE026480078022803D1042000F014F98B
:1002800006E022480078032802D1082000F00CF98B
:100290000021214800F009FAACE71B480068022859
:1002A00029D101211C4800F000FA1C4800780028E0
:1002B0000CD1012000F0F8F8022000F0F5F804203D
:1002C00000F0F2F8082000F0EFF80FE01348007893
:1002D00001280BD1012000F0BAF8022000F0B7F895
:1002E000042000F0B4F8082000F0B1F800210A481A
:1002F00000F0DBF97EE70448006803287FF47AAF5A
:1003000000200149086075E700000020040000207B
:100310000008004006000020000400400500002006
:1003200000B583B00121022000F004FA4FF47040C0
:10033000009000208DF8060000208DF804000120B8
:100340008DF8070000208DF8050000A91C4800F07A
:1003500015FA00A91A4800F011FA00A9184800F08F
:100360000DFA00A9164800F009FA07BD10B50024DF
:100370004FF48051124800F054FA002801D154F093
:1003800001044FF400510E4800F04BFA002801D14F
:1003900054F002044FF48041094800F042FA00286A
:1003A00001D154F004044FF40041054800F039FA3B
:1003B000002801D154F008042000C0B210BD000094
:1003C0000004024000210100481E002906D04FF41D
:1003D0007A710A00511E002AFBD1F4E7704750F8E9
:1003E000041B61B150F8042BD30744BFA9F10103EA
:1003F0009A18002342F8043B091FFAD1EFE770472F
:1004000000B583B00121122000F094F90F20009074
:1004100001208DF8040000208DF8060000208DF8E2
:10042000050000208DF8070000A9364800F0A6F965
:100430000F21344800F000FA0720009000A932484C
:1004400000F09CF90721304800F0F6F907BD10B51F
:100450000400E00703D501212A4800F0EDF9A007C8
:1004600003D50221274800F0E7F9600703D50421EE
:10047000244800F0E1F9200703D50821214800F0C5
:10048000DBF9E00603D501211F4800F0D5F9A006ED
:1004900003D502211C4800F0CFF9600603D50421E2
:1004A000194800F0C9F910BD10B50400E00703D5E4
:1004B0000121144800F0C2F9A00703D50221114818
:1004C00000F0BCF9600703D504210E4800F0B6F92E
:1004D000200703D508210B4800F0B0F9E00603D54A
:1004E0000121094800F0AAF9A00603D50221064817
:1004F00000F0A4F9600603D50421034800F09EF93A
:1005000010BD0000001002400004024030B585B06C
:1005100005000C000121022000F01CF91D208DF8BF
:10052000000000208DF8010001208DF8020001205C
:100530008DF8030000A800F083F90295ADF804409F
:100540000020ADF80C000020ADF8060001A93748E6
:1005500000F076F801220121344800F0C3F805B01C
:1005600030BD30B585B005000C000121042000F03D
:10057000F1F81E208DF8000000208DF80100012008
:100580008DF8020001208DF8030000A800F058F952
:100590000295ADF804400020ADF80C000020ADF845
:1005A000060001A9224800F04BF801220121204851
:1005B00000F098F805B030BD80B501211B4800F06F
:1005C0009DF8002820D00121184800F0AEF8194805
:1005D0000078401C1749087017480078401C1649DD
:1005E000087014480078042802D1002011490870CE
:1005F00011480078022802D100200F4908700F48E6
:100600000078C0430D49087001BD80B5012108483C
:1006100000F074F8002808D00121054800F085F8A2
:1006200006480078C0430549087001BD0004004039
:100630000008004004000020050000200600002003
:10064000002203881A00204B98420ED0244B984277
:100650000BD0B0F1804F08D01C4B984205D01C4BFA
:10066000984202D01B4B984204D14FF68F731A4028
:100670004B881A43184B984207D0184B984204D025
:100680004FF6FF431A400B891A4302804A68C26240
:100690000A8802850C4A904202D0114A904201D148
:1006A000897A0186012181827047C9B2002904D06C
:1006B000018851F00101018004E001884FF6FE72CB
:1006C000114001807047000000000140000400401C
:1006D00000080040000C00400010004000140040E2
:1006E00000040140D2B2002A03D0828911438181E3
:1006F00003E0828932EA01018181704730B400222F
:1007000000230024058A0D402B0080890840040046
:100710009BB2002B04D0A4B2002C01D0012200E037
:1007200000221000C0B230BC704789B2C9430182B8
:1007300070470000C9B2002905D00E490968084376
:100740000C49086005E00B49096831EA00000949D5
:1007500008607047C9B2002905D0074909680843F5
:100760000549086005E00449096831EA00000249CA
:1007700008607047303802404038024030B40022F0
:100780000023002400252A0047E0012393400C6841
:100790001C409C4240D1036803241500EDB26D005B
:1007A000AC40A343036003680C791500EDB26D0003
:1007B000AC40234303600B79012B02D00B79022B51
:1007C0001AD1836803241500EDB26D00AC40A34339
:1007D000836083684C791500EDB26D00AC40234313
:1007E0008360436801249440A343436043688C7949
:1007F0009440A4B223434360C36803241500EDB2C0
:100800006D00AC40A343C360C368CC791500EDB262
:100810006D00AC402343C360521C102AB5D330BCDA
:1008200070470022006989B2084201D0012200E02D
:1008300000221000C0B270470183704741837047A7
:1008400010B4002100220F23C478002C1ED01549BB
:10085000096811F4E061D1F5E061090AD1F10402FF
:10086000DBB20B414178914082781A401143090173
:100870000D4A037899540121027812F01F02914029
:100880000A4A0078401142F8201009E0012102785C
:1008900012F01F029140064A0078401142F82010E1
:1008A00010BC70470CED00E000E400E000E100E067
:1008B00080E100E080B54848006850F47000464987
:1008C00008604648006850F0010044490860002074
:1008D0004349086041480068424908403F49086070
:1008E0004148424908603D48006830F480203B4957
:1008F000086000203E49086000F005F85FF00060E5
:100900003C49086001BD82B00020019000200090A9
:100910003248006850F48030304908602F48006841
:1009200010F4003000900198401C019000980028BD
:1009300003D10198B0F5A04FF0D12848006880039A
:1009400002D50120009001E00020009000980128CD
:100950003ED12948006850F0805027490860274858
:10096000006850F44040254908601D4800681C4953
:1009700008601B48006850F4004019490860184896
:10098000006850F4A050164908601D4817490860D7
:100990001248006850F08070104908600F480068E5
:1009A0008001FBD540F20570164908600C480068CC
:1009B000800880000A4908600948006850F0020079
:1009C000074908600648006810F00C000828F9D1B3
:1009D00002B070470000000088ED00E000380240DF
:1009E00008380240FFFFF6FE1030002404380240B1
:1009F0000C38024008ED00E0403802400070004032
:100A000008544007003C024010B5074979441831AA
:100A1000064C7C44163404E00A68081D51188847C7
:100A20000146A142F8D110BD0800000014000000EA
:100A3000AFF9FFFF080000000000002000000000E8
:100A40004EF68851CEF20001086840F4700008604C
:100A50004FF00070E1EE100A7047000000F00BF854
:100A6000002801D0FFF7D0FF0020C046C046FFF7A6
:100A7000A2FB00F002F80120704700F001B800006E
:100A80000746384600F002F8FBE7000080B5C04694
:100A9000C046024A11001820ABBEFBE72600020048
:100AA0000148804701480047B5080008B10A00081E
:100AB000C046C046FFF7C4FFFFF7D0FFFFF7FEBFF9
:100AC000FFF7FEBFFFF7FEBFFFF7FEBFFFF7FEBF5A
:100AD000FFF7FEBFFFF7FEBFFFF7FEBFFFF7FEBF4A
:100AE000FFF7FEBFFFF7FEBFFFF7FEBFFFF7FEBF3A
:100AF000FFF7FEBFFFF7FEBFFFF7FEBFFFF7FEBF2A
:100B0000FFF7FEBFFFF7FEBFFFF7FEBFFFF7FEBF19
:100B1000FFF7FEBFFFF7FEBFFFF7FEBFFFF7FEBF09
:100B2000FFF7FEBFFFF7FEBFFFF7FEBFFFF7FEBFF9
:100B3000FFF7FEBFFFF7FEBFFFF7FEBFFFF7FEBFE9
:100B4000FFF7FEBFFFF7FEBFFFF7FEBFFFF7FEBFD9
:100B5000FFF7FEBFFFF7FEBFFFF7FEBFFFF7FEBFC9
:100B6000FFF7FEBFFFF7FEBFFFF7FEBFFFF7FEBFB9
:100B7000FFF7FEBFFFF7FEBFFFF7FEBFFFF7FEBFA9
:100B8000FFF7FEBFFFF7FEBFFFF7FEBFFFF7FEBF99
:100B9000FFF7FEBFFFF7FEBFFFF7FEBFFFF7FEBF89
:100BA000FFF7FEBFFFF7FEBFFFF7FEBFFFF7FEBF79
:100BB000FFF7FEBFFFF7FEBFFFF7FEBFFFF7FEBF69
:100BC000FFF7FEBFFFF7FEBFFFF7FEBFFFF7FEBF59
:100BD000FFF7FEBFFFF7FEBFFFF7FEBFFFF7FEBF49
:100BE000FFF7FEBFFFF7FEBFFFF7FEBFFFF7FEBF39
:100BF000FFF7FEBFFFF7FEBFFFF7FEBFFFF7FEBF29
:100C0000FFF7FEBFFFF7FEBFFFF7FEBFFFF7FEBF18
:100C1000FFF7FEBFFFF7FEBFFFF7FEBFFFF7FEBF08
:0400000508000AB134
:00000001FF
